{
  "_format": "hh-sol-artifact-1",
  "contractName": "PayPortal",
  "sourceName": "contracts/PayPortal.sol",
  "abi": [
    {
      "inputs": [],
      "stateMutability": "payable",
      "type": "constructor"
    },
    {
      "anonymous": false,
      "inputs": [
        {
          "indexed": true,
          "internalType": "address",
          "name": "from",
          "type": "address"
        },
        {
          "indexed": false,
          "internalType": "uint256",
          "name": "timestamp",
          "type": "uint256"
        },
        {
          "indexed": false,
          "internalType": "string",
          "name": "message",
          "type": "string"
        },
        {
          "indexed": false,
          "internalType": "string",
          "name": "name",
          "type": "string"
        }
      ],
      "name": "NewPay",
      "type": "event"
    },
    {
      "inputs": [
        {
          "internalType": "string",
          "name": "_message",
          "type": "string"
        },
        {
          "internalType": "string",
          "name": "_name",
          "type": "string"
        },
        {
          "internalType": "uint256",
          "name": "_payAmount",
          "type": "uint256"
        }
      ],
      "name": "buyPay",
      "outputs": [],
      "stateMutability": "payable",
      "type": "function"
    },
    {
      "inputs": [],
      "name": "getAllPay",
      "outputs": [
        {
          "components": [
            {
              "internalType": "address",
              "name": "giver",
              "type": "address"
            },
            {
              "internalType": "string",
              "name": "message",
              "type": "string"
            },
            {
              "internalType": "string",
              "name": "name",
              "type": "string"
            },
            {
              "internalType": "uint256",
              "name": "timestamp",
              "type": "uint256"
            }
          ],
          "internalType": "struct PayPortal.Pay[]",
          "name": "",
          "type": "tuple[]"
        }
      ],
      "stateMutability": "view",
      "type": "function"
    },
    {
      "inputs": [],
      "name": "getTotalPay",
      "outputs": [
        {
          "internalType": "uint256",
          "name": "",
          "type": "uint256"
        }
      ],
      "stateMutability": "view",
      "type": "function"
    },
    {
      "inputs": [],
      "name": "owner",
      "outputs": [
        {
          "internalType": "address payable",
          "name": "",
          "type": "address"
        }
      ],
      "stateMutability": "view",
      "type": "function"
    }
  ],
  "bytecode": "0x60806040526200004f6040518060400160405280601281526020017f596f2120536d61727420436f6e747261637400000000000000000000000000008152506200009660201b620005e41760201c565b33600160006101000a81548173ffffffffffffffffffffffffffffffffffffffff021916908373ffffffffffffffffffffffffffffffffffffffff16021790555062000220565b6200013681604051602401620000ad9190620001fc565b6040516020818303038152906040527f41304fac000000000000000000000000000000000000000000000000000000007bffffffffffffffffffffffffffffffffffffffffffffffffffffffff19166020820180517bffffffffffffffffffffffffffffffffffffffffffffffffffffffff83818316178352505050506200013960201b60201c565b50565b60008151905060006a636f6e736f6c652e6c6f679050602083016000808483855afa5050505050565b600081519050919050565b600082825260208201905092915050565b60005b838110156200019e57808201518184015260208101905062000181565b60008484015250505050565b6000601f19601f8301169050919050565b6000620001c88262000162565b620001d481856200016d565b9350620001e68185602086016200017e565b620001f181620001aa565b840191505092915050565b60006020820190508181036000830152620002188184620001bb565b905092915050565b61123180620002306000396000f3fe60806040526004361061003f5760003560e01c80632c134653146100445780638da5cb5b1461006f5780638f4dd3481461009a578063e37f9c42146100c5575b600080fd5b34801561005057600080fd5b506100596100e1565b60405161006691906107f7565b60405180910390f35b34801561007b57600080fd5b5061008461012c565b6040516100919190610853565b60405180910390f35b3480156100a657600080fd5b506100af610152565b6040516100bc9190610a5a565b60405180910390f35b6100df60048036038101906100da9190610bf1565b610335565b005b60006101246040518060400160405280601e81526020017f5765206861766520256420746f74616c2070617920726563696576656420000081525060005461067d565b600054905090565b600160009054906101000a900473ffffffffffffffffffffffffffffffffffffffff1681565b60606002805480602002602001604051908101604052809291908181526020016000905b8282101561032c57838290600052602060002090600402016040518060800160405290816000820160009054906101000a900473ffffffffffffffffffffffffffffffffffffffff1673ffffffffffffffffffffffffffffffffffffffff1673ffffffffffffffffffffffffffffffffffffffff1681526020016001820180546101ff90610cab565b80601f016020809104026020016040519081016040528092919081815260200182805461022b90610cab565b80156102785780601f1061024d57610100808354040283529160200191610278565b820191906000526020600020905b81548152906001019060200180831161025b57829003601f168201915b5050505050815260200160028201805461029190610cab565b80601f01602080910402602001604051908101604052809291908181526020018280546102bd90610cab565b801561030a5780601f106102df5761010080835404028352916020019161030a565b820191906000526020600020905b8154815290600101906020018083116102ed57829003601f168201915b5050505050815260200160038201548152505081526020019060010190610176565b50505050905090565b600066038d7ea4c68000905080821115610384576040517f08c379a000000000000000000000000000000000000000000000000000000000815260040161037b90610d39565b60405180910390fd5b60016000808282546103969190610d88565b925050819055506103dc6040518060400160405280601b81526020017f257320686173206a7573742073656e742061207061796d656e7421000000000081525033610719565b600260405180608001604052803373ffffffffffffffffffffffffffffffffffffffff16815260200186815260200185815260200142815250908060018154018082558091505060019003906000526020600020906004020160009091909190915060008201518160000160006101000a81548173ffffffffffffffffffffffffffffffffffffffff021916908373ffffffffffffffffffffffffffffffffffffffff160217905550602082015181600101908161049a9190610f68565b5060408201518160020190816104b09190610f68565b506060820151816003015550506000600160009054906101000a900473ffffffffffffffffffffffffffffffffffffffff1673ffffffffffffffffffffffffffffffffffffffff16836040516105059061106b565b60006040518083038185875af1925050503d8060008114610542576040519150601f19603f3d011682016040523d82523d6000602084013e610547565b606091505b505090508061058b576040517f08c379a0000000000000000000000000000000000000000000000000000000008152600401610582906110cc565b60405180910390fd5b3373ffffffffffffffffffffffffffffffffffffffff167f72447224cea3f960eef4061381e76357da3550b9a811b2221056eae948e1240f4287876040516105d593929190611125565b60405180910390a25050505050565b61067a816040516024016105f8919061116a565b6040516020818303038152906040527f41304fac000000000000000000000000000000000000000000000000000000007bffffffffffffffffffffffffffffffffffffffffffffffffffffffff19166020820180517bffffffffffffffffffffffffffffffffffffffffffffffffffffffff83818316178352505050506107b5565b50565b610715828260405160240161069392919061118c565b6040516020818303038152906040527fb60e72cc000000000000000000000000000000000000000000000000000000007bffffffffffffffffffffffffffffffffffffffffffffffffffffffff19166020820180517bffffffffffffffffffffffffffffffffffffffffffffffffffffffff83818316178352505050506107b5565b5050565b6107b1828260405160240161072f9291906111cb565b6040516020818303038152906040527f319af333000000000000000000000000000000000000000000000000000000007bffffffffffffffffffffffffffffffffffffffffffffffffffffffff19166020820180517bffffffffffffffffffffffffffffffffffffffffffffffffffffffff83818316178352505050506107b5565b5050565b60008151905060006a636f6e736f6c652e6c6f679050602083016000808483855afa5050505050565b6000819050919050565b6107f1816107de565b82525050565b600060208201905061080c60008301846107e8565b92915050565b600073ffffffffffffffffffffffffffffffffffffffff82169050919050565b600061083d82610812565b9050919050565b61084d81610832565b82525050565b60006020820190506108686000830184610844565b92915050565b600081519050919050565b600082825260208201905092915050565b6000819050602082019050919050565b60006108a582610812565b9050919050565b6108b58161089a565b82525050565b600081519050919050565b600082825260208201905092915050565b60005b838110156108f55780820151818401526020810190506108da565b60008484015250505050565b6000601f19601f8301169050919050565b600061091d826108bb565b61092781856108c6565b93506109378185602086016108d7565b61094081610901565b840191505092915050565b610954816107de565b82525050565b600060808301600083015161097260008601826108ac565b506020830151848203602086015261098a8282610912565b915050604083015184820360408601526109a48282610912565b91505060608301516109b9606086018261094b565b508091505092915050565b60006109d0838361095a565b905092915050565b6000602082019050919050565b60006109f08261086e565b6109fa8185610879565b935083602082028501610a0c8561088a565b8060005b85811015610a485784840389528151610a2985826109c4565b9450610a34836109d8565b925060208a01995050600181019050610a10565b50829750879550505050505092915050565b60006020820190508181036000830152610a7481846109e5565b905092915050565b6000604051905090565b600080fd5b600080fd5b600080fd5b600080fd5b7f4e487b7100000000000000000000000000000000000000000000000000000000600052604160045260246000fd5b610ad282610901565b810181811067ffffffffffffffff82111715610af157610af0610a9a565b5b80604052505050565b6000610b04610a7c565b9050610b108282610ac9565b919050565b600067ffffffffffffffff821115610b3057610b2f610a9a565b5b610b3982610901565b9050602081019050919050565b82818337600083830152505050565b6000610b68610b6384610b15565b610afa565b905082815260208101848484011115610b8457610b83610a95565b5b610b8f848285610b46565b509392505050565b600082601f830112610bac57610bab610a90565b5b8135610bbc848260208601610b55565b91505092915050565b610bce816107de565b8114610bd957600080fd5b50565b600081359050610beb81610bc5565b92915050565b600080600060608486031215610c0a57610c09610a86565b5b600084013567ffffffffffffffff811115610c2857610c27610a8b565b5b610c3486828701610b97565b935050602084013567ffffffffffffffff811115610c5557610c54610a8b565b5b610c6186828701610b97565b9250506040610c7286828701610bdc565b9150509250925092565b7f4e487b7100000000000000000000000000000000000000000000000000000000600052602260045260246000fd5b60006002820490506001821680610cc357607f821691505b602082108103610cd657610cd5610c7c565b5b50919050565b600082825260208201905092915050565b7f496e73756666696369656e742045746865722070726f76696465640000000000600082015250565b6000610d23601b83610cdc565b9150610d2e82610ced565b602082019050919050565b60006020820190508181036000830152610d5281610d16565b9050919050565b7f4e487b7100000000000000000000000000000000000000000000000000000000600052601160045260246000fd5b6000610d93826107de565b9150610d9e836107de565b9250828201905080821115610db657610db5610d59565b5b92915050565b60008190508160005260206000209050919050565b60006020601f8301049050919050565b600082821b905092915050565b600060088302610e1e7fffffffffffffffffffffffffffffffffffffffffffffffffffffffffffffffff82610de1565b610e288683610de1565b95508019841693508086168417925050509392505050565b6000819050919050565b6000610e65610e60610e5b846107de565b610e40565b6107de565b9050919050565b6000819050919050565b610e7f83610e4a565b610e93610e8b82610e6c565b848454610dee565b825550505050565b600090565b610ea8610e9b565b610eb3818484610e76565b505050565b5b81811015610ed757610ecc600082610ea0565b600181019050610eb9565b5050565b601f821115610f1c57610eed81610dbc565b610ef684610dd1565b81016020851015610f05578190505b610f19610f1185610dd1565b830182610eb8565b50505b505050565b600082821c905092915050565b6000610f3f60001984600802610f21565b1980831691505092915050565b6000610f588383610f2e565b9150826002028217905092915050565b610f71826108bb565b67ffffffffffffffff811115610f8a57610f89610a9a565b5b610f948254610cab565b610f9f828285610edb565b600060209050601f831160018114610fd25760008415610fc0578287015190505b610fca8582610f4c565b865550611032565b601f198416610fe086610dbc565b60005b8281101561100857848901518255600182019150602085019450602081019050610fe3565b868310156110255784890151611021601f891682610f2e565b8355505b6001600288020188555050505b505050505050565b600081905092915050565b50565b600061105560008361103a565b915061106082611045565b600082019050919050565b600061107682611048565b9150819050919050565b7f4661696c656420746f2073656e64206d6f6e6579000000000000000000000000600082015250565b60006110b6601483610cdc565b91506110c182611080565b602082019050919050565b600060208201905081810360008301526110e5816110a9565b9050919050565b60006110f7826108bb565b6111018185610cdc565b93506111118185602086016108d7565b61111a81610901565b840191505092915050565b600060608201905061113a60008301866107e8565b818103602083015261114c81856110ec565b9050818103604083015261116081846110ec565b9050949350505050565b6000602082019050818103600083015261118481846110ec565b905092915050565b600060408201905081810360008301526111a681856110ec565b90506111b560208301846107e8565b9392505050565b6111c58161089a565b82525050565b600060408201905081810360008301526111e581856110ec565b90506111f460208301846111bc565b939250505056fea2646970667358221220b79652d4d70f08b03c6fb2899f22e8021707c3cddc455be89a1a660dfa11171764736f6c63430008110033",
  "linkReferences": {},
  "deployedLinkReferences": {}
}