{
  "_format": "hh-sol-artifact-1",
  "contractName": "PayPortal",
  "sourceName": "contracts/PayPortal.sol",
  "abi": [
    {
      "inputs": [],
      "stateMutability": "payable",
      "type": "constructor"
    },
    {
      "anonymous": false,
      "inputs": [
        {
          "indexed": true,
          "internalType": "address",
          "name": "from",
          "type": "address"
        },
        {
          "indexed": false,
          "internalType": "uint256",
          "name": "timestamp",
          "type": "uint256"
        },
        {
          "indexed": false,
          "internalType": "string",
          "name": "message",
          "type": "string"
        },
        {
          "indexed": false,
          "internalType": "string",
          "name": "name",
          "type": "string"
        }
      ],
      "name": "NewPay",
      "type": "event"
    },
    {
      "inputs": [
        {
          "internalType": "string",
          "name": "_message",
          "type": "string"
        },
        {
          "internalType": "string",
          "name": "_name",
          "type": "string"
        },
        {
          "internalType": "uint256",
          "name": "_payAmount",
          "type": "uint256"
        }
      ],
      "name": "buyPay",
      "outputs": [],
      "stateMutability": "payable",
      "type": "function"
    },
    {
      "inputs": [],
      "name": "getAllPay",
      "outputs": [
        {
          "components": [
            {
              "internalType": "address",
              "name": "giver",
              "type": "address"
            },
            {
              "internalType": "string",
              "name": "message",
              "type": "string"
            },
            {
              "internalType": "string",
              "name": "name",
              "type": "string"
            },
            {
              "internalType": "uint256",
              "name": "timestamp",
              "type": "uint256"
            }
          ],
          "internalType": "struct PayPortal.Pay[]",
          "name": "",
          "type": "tuple[]"
        }
      ],
      "stateMutability": "view",
      "type": "function"
    },
    {
      "inputs": [],
      "name": "getLatestPrice",
      "outputs": [
        {
          "internalType": "int256",
          "name": "",
          "type": "int256"
        }
      ],
      "stateMutability": "view",
      "type": "function"
    },
    {
      "inputs": [],
      "name": "getTotalPay",
      "outputs": [
        {
          "internalType": "uint256",
          "name": "",
          "type": "uint256"
        }
      ],
      "stateMutability": "view",
      "type": "function"
    },
    {
      "inputs": [],
      "name": "owner",
      "outputs": [
        {
          "internalType": "address payable",
          "name": "",
          "type": "address"
        }
      ],
      "stateMutability": "view",
      "type": "function"
    },
    {
      "inputs": [],
      "name": "storeLatestPrice",
      "outputs": [],
      "stateMutability": "nonpayable",
      "type": "function"
    },
    {
      "inputs": [],
      "name": "storedPrice",
      "outputs": [
        {
          "internalType": "int256",
          "name": "",
          "type": "int256"
        }
      ],
      "stateMutability": "view",
      "type": "function"
    }
  ],
  "bytecode": "0x608060405273d0d5e3db44de05e9f294bb0a3beeaf030de24ada6000806101000a81548173ffffffffffffffffffffffffffffffffffffffff021916908373ffffffffffffffffffffffffffffffffffffffff160217905550620000a36040518060400160405280601281526020017f596f2120536d61727420436f6e74726163740000000000000000000000000000815250620000ea60201b620007551760201c565b33600360006101000a81548173ffffffffffffffffffffffffffffffffffffffff021916908373ffffffffffffffffffffffffffffffffffffffff1602179055506200027e565b6200018a81604051602401620001019190620001f7565b6040516020818303038152906040527f41304fac000000000000000000000000000000000000000000000000000000007bffffffffffffffffffffffffffffffffffffffffffffffffffffffff19166020820180517bffffffffffffffffffffffffffffffffffffffffffffffffffffffff83818316178352505050506200018d60201b60201c565b50565b60008151905060006a636f6e736f6c652e6c6f679050602083016000808483855afa5050505050565b6000620001c3826200021b565b620001cf818562000226565b9350620001e181856020860162000237565b620001ec816200026d565b840191505092915050565b60006020820190508181036000830152620002138184620001b6565b905092915050565b600081519050919050565b600082825260208201905092915050565b60005b83811015620002575780820151818401526020810190506200023a565b8381111562000267576000848401525b50505050565b6000601f19601f8301169050919050565b6112f9806200028e6000396000f3fe6080604052600436106100705760003560e01c80638e15f4731161004e5780638e15f473146100e25780638f4dd3481461010d5780639ed3012814610138578063e37f9c421461016357610070565b80632c1346531461007557806353d10acb146100a05780638da5cb5b146100b7575b600080fd5b34801561008157600080fd5b5061008a61017f565b6040516100979190610efb565b60405180910390f35b3480156100ac57600080fd5b506100b56101ca565b005b3480156100c357600080fd5b506100cc6101da565b6040516100d99190610de1565b60405180910390f35b3480156100ee57600080fd5b506100f7610200565b6040516101049190610e1e565b60405180910390f35b34801561011957600080fd5b506101226102ae565b60405161012f9190610dfc565b60405180910390f35b34801561014457600080fd5b5061014d610491565b60405161015a9190610e1e565b60405180910390f35b61017d60048036038101906101789190610aae565b610497565b005b60006101c26040518060400160405280601e81526020017f5765206861766520256420746f74616c207061792072656369657665642000008152506002546107ee565b600254905090565b6101d2610200565b600181905550565b600360009054906101000a900473ffffffffffffffffffffffffffffffffffffffff1681565b60008060008054906101000a900473ffffffffffffffffffffffffffffffffffffffff1673ffffffffffffffffffffffffffffffffffffffff1663feaf968c6040518163ffffffff1660e01b815260040160a06040518083038186803b15801561026957600080fd5b505afa15801561027d573d6000803e3d6000fd5b505050506040513d601f19601f820116820180604052508101906102a19190610b2d565b5050509150508091505090565b60606004805480602002602001604051908101604052809291908181526020016000905b8282101561048857838290600052602060002090600402016040518060800160405290816000820160009054906101000a900473ffffffffffffffffffffffffffffffffffffffff1673ffffffffffffffffffffffffffffffffffffffff1673ffffffffffffffffffffffffffffffffffffffff16815260200160018201805461035b90611128565b80601f016020809104026020016040519081016040528092919081815260200182805461038790611128565b80156103d45780601f106103a9576101008083540402835291602001916103d4565b820191906000526020600020905b8154815290600101906020018083116103b757829003601f168201915b505050505081526020016002820180546103ed90611128565b80601f016020809104026020016040519081016040528092919081815260200182805461041990611128565b80156104665780601f1061043b57610100808354040283529160200191610466565b820191906000526020600020905b81548152906001019060200180831161044957829003601f168201915b50505050508152602001600382015481525050815260200190600101906102d2565b50505050905090565b60015481565b600066038d7ea4c680009050808211156104e6576040517f08c379a00000000000000000000000000000000000000000000000000000000081526004016104dd90610ebb565b60405180910390fd5b6001600260008282546104f99190611022565b9250508190555061053f6040518060400160405280601b81526020017f257320686173206a7573742073656e742061207061796d656e742100000000008152503361088a565b600460405180608001604052803373ffffffffffffffffffffffffffffffffffffffff16815260200186815260200185815260200142815250908060018154018082558091505060019003906000526020600020906004020160009091909190915060008201518160000160006101000a81548173ffffffffffffffffffffffffffffffffffffffff021916908373ffffffffffffffffffffffffffffffffffffffff160217905550602082015181600101908051906020019061060492919061094f565b50604082015181600201908051906020019061062192919061094f565b506060820151816003015550506000600360009054906101000a900473ffffffffffffffffffffffffffffffffffffffff1673ffffffffffffffffffffffffffffffffffffffff168360405161067690610dcc565b60006040518083038185875af1925050503d80600081146106b3576040519150601f19603f3d011682016040523d82523d6000602084013e6106b8565b606091505b50509050806106fc576040517f08c379a00000000000000000000000000000000000000000000000000000000081526004016106f390610edb565b60405180910390fd5b3373ffffffffffffffffffffffffffffffffffffffff167f72447224cea3f960eef4061381e76357da3550b9a811b2221056eae948e1240f42878760405161074693929190610f16565b60405180910390a25050505050565b6107eb816040516024016107699190610e39565b6040516020818303038152906040527f41304fac000000000000000000000000000000000000000000000000000000007bffffffffffffffffffffffffffffffffffffffffffffffffffffffff19166020820180517bffffffffffffffffffffffffffffffffffffffffffffffffffffffff8381831617835250505050610926565b50565b6108868282604051602401610804929190610e8b565b6040516020818303038152906040527fb60e72cc000000000000000000000000000000000000000000000000000000007bffffffffffffffffffffffffffffffffffffffffffffffffffffffff19166020820180517bffffffffffffffffffffffffffffffffffffffffffffffffffffffff8381831617835250505050610926565b5050565b61092282826040516024016108a0929190610e5b565b6040516020818303038152906040527f319af333000000000000000000000000000000000000000000000000000000007bffffffffffffffffffffffffffffffffffffffffffffffffffffffff19166020820180517bffffffffffffffffffffffffffffffffffffffffffffffffffffffff8381831617835250505050610926565b5050565b60008151905060006a636f6e736f6c652e6c6f679050602083016000808483855afa5050505050565b82805461095b90611128565b90600052602060002090601f01602090048101928261097d57600085556109c4565b82601f1061099657805160ff19168380011785556109c4565b828001600101855582156109c4579182015b828111156109c35782518255916020019190600101906109a8565b5b5090506109d191906109d5565b5090565b5b808211156109ee5760008160009055506001016109d6565b5090565b6000610a05610a0084610f80565b610f5b565b905082815260208101848484011115610a1d57600080fd5b610a288482856110e6565b509392505050565b600081519050610a3f8161127e565b92915050565b600082601f830112610a5657600080fd5b8135610a668482602086016109f2565b91505092915050565b600081359050610a7e81611295565b92915050565b600081519050610a9381611295565b92915050565b600081519050610aa8816112ac565b92915050565b600080600060608486031215610ac357600080fd5b600084013567ffffffffffffffff811115610add57600080fd5b610ae986828701610a45565b935050602084013567ffffffffffffffff811115610b0657600080fd5b610b1286828701610a45565b9250506040610b2386828701610a6f565b9150509250925092565b600080600080600060a08688031215610b4557600080fd5b6000610b5388828901610a99565b9550506020610b6488828901610a30565b9450506040610b7588828901610a84565b9350506060610b8688828901610a84565b9250506080610b9788828901610a99565b9150509295509295909350565b6000610bb08383610d44565b905092915050565b610bc18161108a565b82525050565b610bd081611078565b82525050565b610bdf81611078565b82525050565b6000610bf082610fc1565b610bfa8185610fe4565b935083602082028501610c0c85610fb1565b8060005b85811015610c485784840389528151610c298582610ba4565b9450610c3483610fd7565b925060208a01995050600181019050610c10565b50829750879550505050505092915050565b610c638161109c565b82525050565b6000610c7482610fcc565b610c7e8185611000565b9350610c8e8185602086016110f5565b610c9781611218565b840191505092915050565b6000610cad82610fcc565b610cb78185611011565b9350610cc78185602086016110f5565b610cd081611218565b840191505092915050565b6000610ce8601b83611011565b9150610cf382611229565b602082019050919050565b6000610d0b601483611011565b9150610d1682611252565b602082019050919050565b6000610d2e600083610ff5565b9150610d398261127b565b600082019050919050565b6000608083016000830151610d5c6000860182610bc7565b5060208301518482036020860152610d748282610c69565b91505060408301518482036040860152610d8e8282610c69565b9150506060830151610da36060860182610dae565b508091505092915050565b610db7816110c6565b82525050565b610dc6816110c6565b82525050565b6000610dd782610d21565b9150819050919050565b6000602082019050610df66000830184610bb8565b92915050565b60006020820190508181036000830152610e168184610be5565b905092915050565b6000602082019050610e336000830184610c5a565b92915050565b60006020820190508181036000830152610e538184610ca2565b905092915050565b60006040820190508181036000830152610e758185610ca2565b9050610e846020830184610bd6565b9392505050565b60006040820190508181036000830152610ea58185610ca2565b9050610eb46020830184610dbd565b9392505050565b60006020820190508181036000830152610ed481610cdb565b9050919050565b60006020820190508181036000830152610ef481610cfe565b9050919050565b6000602082019050610f106000830184610dbd565b92915050565b6000606082019050610f2b6000830186610dbd565b8181036020830152610f3d8185610ca2565b90508181036040830152610f518184610ca2565b9050949350505050565b6000610f65610f76565b9050610f71828261115a565b919050565b6000604051905090565b600067ffffffffffffffff821115610f9b57610f9a6111e9565b5b610fa482611218565b9050602081019050919050565b6000819050602082019050919050565b600081519050919050565b600081519050919050565b6000602082019050919050565b600082825260208201905092915050565b600081905092915050565b600082825260208201905092915050565b600082825260208201905092915050565b600061102d826110c6565b9150611038836110c6565b9250827fffffffffffffffffffffffffffffffffffffffffffffffffffffffffffffffff0382111561106d5761106c61118b565b5b828201905092915050565b6000611083826110a6565b9050919050565b6000611095826110a6565b9050919050565b6000819050919050565b600073ffffffffffffffffffffffffffffffffffffffff82169050919050565b6000819050919050565b600069ffffffffffffffffffff82169050919050565b82818337600083830152505050565b60005b838110156111135780820151818401526020810190506110f8565b83811115611122576000848401525b50505050565b6000600282049050600182168061114057607f821691505b60208210811415611154576111536111ba565b5b50919050565b61116382611218565b810181811067ffffffffffffffff82111715611182576111816111e9565b5b80604052505050565b7f4e487b7100000000000000000000000000000000000000000000000000000000600052601160045260246000fd5b7f4e487b7100000000000000000000000000000000000000000000000000000000600052602260045260246000fd5b7f4e487b7100000000000000000000000000000000000000000000000000000000600052604160045260246000fd5b6000601f19601f8301169050919050565b7f496e73756666696369656e742045746865722070726f76696465640000000000600082015250565b7f4661696c656420746f2073656e64206d6f6e6579000000000000000000000000600082015250565b50565b6112878161109c565b811461129257600080fd5b50565b61129e816110c6565b81146112a957600080fd5b50565b6112b5816110d0565b81146112c057600080fd5b5056fea264697066735822122097833578c99b8a096cc88895328158a64b8dff2813b1be95d632f1cc506e418464736f6c63430008040033",
  "linkReferences": {},
  "deployedLinkReferences": {}
}