{
  "_format": "hh-sol-artifact-1",
  "contractName": "PayPortal",
  "sourceName": "contracts/PayPortal.sol",
  "abi": [
    {
      "inputs": [],
      "stateMutability": "payable",
      "type": "constructor"
    },
    {
      "anonymous": false,
      "inputs": [
        {
          "indexed": true,
          "internalType": "address",
          "name": "from",
          "type": "address"
        },
        {
          "indexed": false,
          "internalType": "uint256",
          "name": "timestamp",
          "type": "uint256"
        },
        {
          "indexed": false,
          "internalType": "string",
          "name": "message",
          "type": "string"
        },
        {
          "indexed": false,
          "internalType": "string",
          "name": "name",
          "type": "string"
        }
      ],
      "name": "NewPay",
      "type": "event"
    },
    {
      "inputs": [
        {
          "internalType": "string",
          "name": "_message",
          "type": "string"
        },
        {
          "internalType": "string",
          "name": "_name",
          "type": "string"
        },
        {
          "internalType": "uint256",
          "name": "_payAmount",
          "type": "uint256"
        }
      ],
      "name": "buyPay",
      "outputs": [],
      "stateMutability": "payable",
      "type": "function"
    },
    {
      "inputs": [],
      "name": "getAllPay",
      "outputs": [
        {
          "components": [
            {
              "internalType": "address",
              "name": "giver",
              "type": "address"
            },
            {
              "internalType": "string",
              "name": "message",
              "type": "string"
            },
            {
              "internalType": "string",
              "name": "name",
              "type": "string"
            },
            {
              "internalType": "uint256",
              "name": "timestamp",
              "type": "uint256"
            }
          ],
          "internalType": "struct PayPortal.Pay[]",
          "name": "",
          "type": "tuple[]"
        }
      ],
      "stateMutability": "view",
      "type": "function"
    },
    {
      "inputs": [],
      "name": "getLatestPrice",
      "outputs": [
        {
          "internalType": "int256",
          "name": "",
          "type": "int256"
        }
      ],
      "stateMutability": "view",
      "type": "function"
    },
    {
      "inputs": [],
      "name": "getTotalPay",
      "outputs": [
        {
          "internalType": "uint256",
          "name": "",
          "type": "uint256"
        }
      ],
      "stateMutability": "view",
      "type": "function"
    },
    {
      "inputs": [],
      "name": "owner",
      "outputs": [
        {
          "internalType": "address payable",
          "name": "",
          "type": "address"
        }
      ],
      "stateMutability": "view",
      "type": "function"
    }
  ],
  "bytecode": "0x608060405273d0d5e3db44de05e9f294bb0a3beeaf030de24ada6000806101000a81548173ffffffffffffffffffffffffffffffffffffffff021916908373ffffffffffffffffffffffffffffffffffffffff160217905550620000a36040518060400160405280601281526020017f596f2120536d61727420436f6e74726163740000000000000000000000000000815250620000ea60201b620006d61760201c565b33600260006101000a81548173ffffffffffffffffffffffffffffffffffffffff021916908373ffffffffffffffffffffffffffffffffffffffff1602179055506200027e565b6200018a81604051602401620001019190620001f7565b6040516020818303038152906040527f41304fac000000000000000000000000000000000000000000000000000000007bffffffffffffffffffffffffffffffffffffffffffffffffffffffff19166020820180517bffffffffffffffffffffffffffffffffffffffffffffffffffffffff83818316178352505050506200018d60201b60201c565b50565b60008151905060006a636f6e736f6c652e6c6f679050602083016000808483855afa5050505050565b6000620001c3826200021b565b620001cf818562000226565b9350620001e181856020860162000237565b620001ec816200026d565b840191505092915050565b60006020820190508181036000830152620002138184620001b6565b905092915050565b600081519050919050565b600082825260208201905092915050565b60005b83811015620002575780820151818401526020810190506200023a565b8381111562000267576000848401525b50505050565b6000601f19601f8301169050919050565b61127a806200028e6000396000f3fe60806040526004361061004a5760003560e01c80632c1346531461004f5780638da5cb5b1461007a5780638e15f473146100a55780638f4dd348146100d0578063e37f9c42146100fb575b600080fd5b34801561005b57600080fd5b50610064610117565b6040516100719190610e7c565b60405180910390f35b34801561008657600080fd5b5061008f610162565b60405161009c9190610d62565b60405180910390f35b3480156100b157600080fd5b506100ba610188565b6040516100c79190610d9f565b60405180910390f35b3480156100dc57600080fd5b506100e5610236565b6040516100f29190610d7d565b60405180910390f35b61011560048036038101906101109190610a2f565b610419565b005b600061015a6040518060400160405280601e81526020017f5765206861766520256420746f74616c2070617920726563696576656420000081525060015461076f565b600154905090565b600260009054906101000a900473ffffffffffffffffffffffffffffffffffffffff1681565b60008060008054906101000a900473ffffffffffffffffffffffffffffffffffffffff1673ffffffffffffffffffffffffffffffffffffffff1663feaf968c6040518163ffffffff1660e01b815260040160a06040518083038186803b1580156101f157600080fd5b505afa158015610205573d6000803e3d6000fd5b505050506040513d601f19601f820116820180604052508101906102299190610aae565b5050509150508091505090565b60606003805480602002602001604051908101604052809291908181526020016000905b8282101561041057838290600052602060002090600402016040518060800160405290816000820160009054906101000a900473ffffffffffffffffffffffffffffffffffffffff1673ffffffffffffffffffffffffffffffffffffffff1673ffffffffffffffffffffffffffffffffffffffff1681526020016001820180546102e3906110a9565b80601f016020809104026020016040519081016040528092919081815260200182805461030f906110a9565b801561035c5780601f106103315761010080835404028352916020019161035c565b820191906000526020600020905b81548152906001019060200180831161033f57829003601f168201915b50505050508152602001600282018054610375906110a9565b80601f01602080910402602001604051908101604052809291908181526020018280546103a1906110a9565b80156103ee5780601f106103c3576101008083540402835291602001916103ee565b820191906000526020600020905b8154815290600101906020018083116103d157829003601f168201915b505050505081526020016003820154815250508152602001906001019061025a565b50505050905090565b600066038d7ea4c68000905080821115610468576040517f08c379a000000000000000000000000000000000000000000000000000000000815260040161045f90610e3c565b60405180910390fd5b600180600082825461047a9190610fa3565b925050819055506104c06040518060400160405280601b81526020017f257320686173206a7573742073656e742061207061796d656e742100000000008152503361080b565b600360405180608001604052803373ffffffffffffffffffffffffffffffffffffffff16815260200186815260200185815260200142815250908060018154018082558091505060019003906000526020600020906004020160009091909190915060008201518160000160006101000a81548173ffffffffffffffffffffffffffffffffffffffff021916908373ffffffffffffffffffffffffffffffffffffffff16021790555060208201518160010190805190602001906105859291906108d0565b5060408201518160020190805190602001906105a29291906108d0565b506060820151816003015550506000600260009054906101000a900473ffffffffffffffffffffffffffffffffffffffff1673ffffffffffffffffffffffffffffffffffffffff16836040516105f790610d4d565b60006040518083038185875af1925050503d8060008114610634576040519150601f19603f3d011682016040523d82523d6000602084013e610639565b606091505b505090508061067d576040517f08c379a000000000000000000000000000000000000000000000000000000000815260040161067490610e5c565b60405180910390fd5b3373ffffffffffffffffffffffffffffffffffffffff167f72447224cea3f960eef4061381e76357da3550b9a811b2221056eae948e1240f4287876040516106c793929190610e97565b60405180910390a25050505050565b61076c816040516024016106ea9190610dba565b6040516020818303038152906040527f41304fac000000000000000000000000000000000000000000000000000000007bffffffffffffffffffffffffffffffffffffffffffffffffffffffff19166020820180517bffffffffffffffffffffffffffffffffffffffffffffffffffffffff83818316178352505050506108a7565b50565b6108078282604051602401610785929190610e0c565b6040516020818303038152906040527fb60e72cc000000000000000000000000000000000000000000000000000000007bffffffffffffffffffffffffffffffffffffffffffffffffffffffff19166020820180517bffffffffffffffffffffffffffffffffffffffffffffffffffffffff83818316178352505050506108a7565b5050565b6108a38282604051602401610821929190610ddc565b6040516020818303038152906040527f319af333000000000000000000000000000000000000000000000000000000007bffffffffffffffffffffffffffffffffffffffffffffffffffffffff19166020820180517bffffffffffffffffffffffffffffffffffffffffffffffffffffffff83818316178352505050506108a7565b5050565b60008151905060006a636f6e736f6c652e6c6f679050602083016000808483855afa5050505050565b8280546108dc906110a9565b90600052602060002090601f0160209004810192826108fe5760008555610945565b82601f1061091757805160ff1916838001178555610945565b82800160010185558215610945579182015b82811115610944578251825591602001919060010190610929565b5b5090506109529190610956565b5090565b5b8082111561096f576000816000905550600101610957565b5090565b600061098661098184610f01565b610edc565b90508281526020810184848401111561099e57600080fd5b6109a9848285611067565b509392505050565b6000815190506109c0816111ff565b92915050565b600082601f8301126109d757600080fd5b81356109e7848260208601610973565b91505092915050565b6000813590506109ff81611216565b92915050565b600081519050610a1481611216565b92915050565b600081519050610a298161122d565b92915050565b600080600060608486031215610a4457600080fd5b600084013567ffffffffffffffff811115610a5e57600080fd5b610a6a868287016109c6565b935050602084013567ffffffffffffffff811115610a8757600080fd5b610a93868287016109c6565b9250506040610aa4868287016109f0565b9150509250925092565b600080600080600060a08688031215610ac657600080fd5b6000610ad488828901610a1a565b9550506020610ae5888289016109b1565b9450506040610af688828901610a05565b9350506060610b0788828901610a05565b9250506080610b1888828901610a1a565b9150509295509295909350565b6000610b318383610cc5565b905092915050565b610b428161100b565b82525050565b610b5181610ff9565b82525050565b610b6081610ff9565b82525050565b6000610b7182610f42565b610b7b8185610f65565b935083602082028501610b8d85610f32565b8060005b85811015610bc95784840389528151610baa8582610b25565b9450610bb583610f58565b925060208a01995050600181019050610b91565b50829750879550505050505092915050565b610be48161101d565b82525050565b6000610bf582610f4d565b610bff8185610f81565b9350610c0f818560208601611076565b610c1881611199565b840191505092915050565b6000610c2e82610f4d565b610c388185610f92565b9350610c48818560208601611076565b610c5181611199565b840191505092915050565b6000610c69601b83610f92565b9150610c74826111aa565b602082019050919050565b6000610c8c601483610f92565b9150610c97826111d3565b602082019050919050565b6000610caf600083610f76565b9150610cba826111fc565b600082019050919050565b6000608083016000830151610cdd6000860182610b48565b5060208301518482036020860152610cf58282610bea565b91505060408301518482036040860152610d0f8282610bea565b9150506060830151610d246060860182610d2f565b508091505092915050565b610d3881611047565b82525050565b610d4781611047565b82525050565b6000610d5882610ca2565b9150819050919050565b6000602082019050610d776000830184610b39565b92915050565b60006020820190508181036000830152610d978184610b66565b905092915050565b6000602082019050610db46000830184610bdb565b92915050565b60006020820190508181036000830152610dd48184610c23565b905092915050565b60006040820190508181036000830152610df68185610c23565b9050610e056020830184610b57565b9392505050565b60006040820190508181036000830152610e268185610c23565b9050610e356020830184610d3e565b9392505050565b60006020820190508181036000830152610e5581610c5c565b9050919050565b60006020820190508181036000830152610e7581610c7f565b9050919050565b6000602082019050610e916000830184610d3e565b92915050565b6000606082019050610eac6000830186610d3e565b8181036020830152610ebe8185610c23565b90508181036040830152610ed28184610c23565b9050949350505050565b6000610ee6610ef7565b9050610ef282826110db565b919050565b6000604051905090565b600067ffffffffffffffff821115610f1c57610f1b61116a565b5b610f2582611199565b9050602081019050919050565b6000819050602082019050919050565b600081519050919050565b600081519050919050565b6000602082019050919050565b600082825260208201905092915050565b600081905092915050565b600082825260208201905092915050565b600082825260208201905092915050565b6000610fae82611047565b9150610fb983611047565b9250827fffffffffffffffffffffffffffffffffffffffffffffffffffffffffffffffff03821115610fee57610fed61110c565b5b828201905092915050565b600061100482611027565b9050919050565b600061101682611027565b9050919050565b6000819050919050565b600073ffffffffffffffffffffffffffffffffffffffff82169050919050565b6000819050919050565b600069ffffffffffffffffffff82169050919050565b82818337600083830152505050565b60005b83811015611094578082015181840152602081019050611079565b838111156110a3576000848401525b50505050565b600060028204905060018216806110c157607f821691505b602082108114156110d5576110d461113b565b5b50919050565b6110e482611199565b810181811067ffffffffffffffff821117156111035761110261116a565b5b80604052505050565b7f4e487b7100000000000000000000000000000000000000000000000000000000600052601160045260246000fd5b7f4e487b7100000000000000000000000000000000000000000000000000000000600052602260045260246000fd5b7f4e487b7100000000000000000000000000000000000000000000000000000000600052604160045260246000fd5b6000601f19601f8301169050919050565b7f496e73756666696369656e742045746865722070726f76696465640000000000600082015250565b7f4661696c656420746f2073656e64206d6f6e6579000000000000000000000000600082015250565b50565b6112088161101d565b811461121357600080fd5b50565b61121f81611047565b811461122a57600080fd5b50565b61123681611051565b811461124157600080fd5b5056fea264697066735822122019c09ef146e16ed32685ce28d806be5d53fd99cb1ce2c2f1b711eef56c95ea8264736f6c63430008040033",
  "linkReferences": {},
  "deployedLinkReferences": {}
}