{
  "_format": "hh-sol-artifact-1",
  "contractName": "PayPortal",
  "sourceName": "contracts/PayPortal.sol",
  "abi": [
    {
      "inputs": [],
      "stateMutability": "payable",
      "type": "constructor"
    },
    {
      "anonymous": false,
      "inputs": [
        {
          "indexed": true,
          "internalType": "address",
          "name": "from",
          "type": "address"
        },
        {
          "indexed": false,
          "internalType": "uint256",
          "name": "timestamp",
          "type": "uint256"
        },
        {
          "indexed": false,
          "internalType": "string",
          "name": "message",
          "type": "string"
        },
        {
          "indexed": false,
          "internalType": "string",
          "name": "name",
          "type": "string"
        },
        {
          "indexed": false,
          "internalType": "uint256",
          "name": "payamount",
          "type": "uint256"
        },
        {
          "indexed": false,
          "internalType": "int256",
          "name": "price",
          "type": "int256"
        }
      ],
      "name": "NewPay",
      "type": "event"
    },
    {
      "inputs": [
        {
          "internalType": "string",
          "name": "_message",
          "type": "string"
        },
        {
          "internalType": "string",
          "name": "_name",
          "type": "string"
        },
        {
          "internalType": "uint256",
          "name": "_payAmount",
          "type": "uint256"
        },
        {
          "internalType": "int256",
          "name": "_latestPrice",
          "type": "int256"
        }
      ],
      "name": "buyPay",
      "outputs": [],
      "stateMutability": "payable",
      "type": "function"
    },
    {
      "inputs": [],
      "name": "getAllPay",
      "outputs": [
        {
          "components": [
            {
              "internalType": "address",
              "name": "giver",
              "type": "address"
            },
            {
              "internalType": "uint256",
              "name": "timestamp",
              "type": "uint256"
            },
            {
              "internalType": "string",
              "name": "message",
              "type": "string"
            },
            {
              "internalType": "string",
              "name": "name",
              "type": "string"
            },
            {
              "internalType": "uint256",
              "name": "payamount",
              "type": "uint256"
            },
            {
              "internalType": "int256",
              "name": "price",
              "type": "int256"
            }
          ],
          "internalType": "struct PayPortal.Pay[]",
          "name": "",
          "type": "tuple[]"
        }
      ],
      "stateMutability": "view",
      "type": "function"
    },
    {
      "inputs": [],
      "name": "getLatestPrice",
      "outputs": [
        {
          "internalType": "int256",
          "name": "",
          "type": "int256"
        }
      ],
      "stateMutability": "view",
      "type": "function"
    },
    {
      "inputs": [],
      "name": "getTotalPay",
      "outputs": [
        {
          "internalType": "uint256",
          "name": "",
          "type": "uint256"
        }
      ],
      "stateMutability": "view",
      "type": "function"
    },
    {
      "inputs": [],
      "name": "owner",
      "outputs": [
        {
          "internalType": "address payable",
          "name": "",
          "type": "address"
        }
      ],
      "stateMutability": "view",
      "type": "function"
    }
  ],
  "bytecode": "0x608060405273d0d5e3db44de05e9f294bb0a3beeaf030de24ada6000806101000a81548173ffffffffffffffffffffffffffffffffffffffff021916908373ffffffffffffffffffffffffffffffffffffffff160217905550620000a36040518060400160405280601281526020017f596f2120536d61727420436f6e74726163740000000000000000000000000000815250620000ea60201b6200073c1760201c565b33600260006101000a81548173ffffffffffffffffffffffffffffffffffffffff021916908373ffffffffffffffffffffffffffffffffffffffff1602179055506200027e565b6200018a81604051602401620001019190620001f7565b6040516020818303038152906040527f41304fac000000000000000000000000000000000000000000000000000000007bffffffffffffffffffffffffffffffffffffffffffffffffffffffff19166020820180517bffffffffffffffffffffffffffffffffffffffffffffffffffffffff83818316178352505050506200018d60201b60201c565b50565b60008151905060006a636f6e736f6c652e6c6f679050602083016000808483855afa5050505050565b6000620001c3826200021b565b620001cf818562000226565b9350620001e181856020860162000237565b620001ec816200026d565b840191505092915050565b60006020820190508181036000830152620002138184620001b6565b905092915050565b600081519050919050565b600082825260208201905092915050565b60005b83811015620002575780820151818401526020810190506200023a565b8381111562000267576000848401525b50505050565b6000601f19601f8301169050919050565b611414806200028e6000396000f3fe60806040526004361061004a5760003560e01c80632c1346531461004f5780635b3aa7ab1461007a5780638da5cb5b146100965780638e15f473146100c15780638f4dd348146100ec575b600080fd5b34801561005b57600080fd5b50610064610117565b6040516100719190610f40565b60405180910390f35b610094600480360381019061008f9190610aaa565b610162565b005b3480156100a257600080fd5b506100ab610471565b6040516100b89190610e26565b60405180910390f35b3480156100cd57600080fd5b506100d6610497565b6040516100e39190610e63565b60405180910390f35b3480156100f857600080fd5b50610101610545565b60405161010e9190610e41565b60405180910390f35b600061015a6040518060400160405280601e81526020017f5765206861766520256420746f74616c207061792072656369657665642000008152506001546107d5565b600154905090565b600066038d7ea4c680009050610176610497565b915060006305f5e1008361018a91906110d9565b90508084610198919061110a565b9350818411156101dd576040517f08c379a00000000000000000000000000000000000000000000000000000000081526004016101d490610f00565b60405180910390fd5b60018060008282546101ef9190611083565b925050819055506102356040518060400160405280601b81526020017f257320686173206a7573742073656e742061207061796d656e7421000000000081525033610871565b60036040518060c001604052803373ffffffffffffffffffffffffffffffffffffffff16815260200142815260200188815260200187815260200186815260200185815250908060018154018082558091505060019003906000526020600020906006020160009091909190915060008201518160000160006101000a81548173ffffffffffffffffffffffffffffffffffffffff021916908373ffffffffffffffffffffffffffffffffffffffff160217905550602082015181600101556040820151816002019080519060200190610310929190610936565b50606082015181600301908051906020019061032d929190610936565b506080820151816004015560a0820151816005015550506000600260009054906101000a900473ffffffffffffffffffffffffffffffffffffffff1673ffffffffffffffffffffffffffffffffffffffff168560405161038c90610e11565b60006040518083038185875af1925050503d80600081146103c9576040519150601f19603f3d011682016040523d82523d6000602084013e6103ce565b606091505b5050905080610412576040517f08c379a000000000000000000000000000000000000000000000000000000000815260040161040990610f20565b60405180910390fd5b3373ffffffffffffffffffffffffffffffffffffffff167fc314240f095b6c674a580ce17749e67c3e97b85526084f7fcb1f9ed8f063792e4289898989604051610460959493929190610f5b565b60405180910390a250505050505050565b600260009054906101000a900473ffffffffffffffffffffffffffffffffffffffff1681565b60008060008054906101000a900473ffffffffffffffffffffffffffffffffffffffff1673ffffffffffffffffffffffffffffffffffffffff1663feaf968c6040518163ffffffff1660e01b815260040160a06040518083038186803b15801561050057600080fd5b505afa158015610514573d6000803e3d6000fd5b505050506040513d601f19601f820116820180604052508101906105389190610b3d565b5050509150508091505090565b60606003805480602002602001604051908101604052809291908181526020016000905b8282101561073357838290600052602060002090600602016040518060c00160405290816000820160009054906101000a900473ffffffffffffffffffffffffffffffffffffffff1673ffffffffffffffffffffffffffffffffffffffff1673ffffffffffffffffffffffffffffffffffffffff168152602001600182015481526020016002820180546105fc90611214565b80601f016020809104026020016040519081016040528092919081815260200182805461062890611214565b80156106755780601f1061064a57610100808354040283529160200191610675565b820191906000526020600020905b81548152906001019060200180831161065857829003601f168201915b5050505050815260200160038201805461068e90611214565b80601f01602080910402602001604051908101604052809291908181526020018280546106ba90611214565b80156107075780601f106106dc57610100808354040283529160200191610707565b820191906000526020600020905b8154815290600101906020018083116106ea57829003601f168201915b505050505081526020016004820154815260200160058201548152505081526020019060010190610569565b50505050905090565b6107d2816040516024016107509190610e7e565b6040516020818303038152906040527f41304fac000000000000000000000000000000000000000000000000000000007bffffffffffffffffffffffffffffffffffffffffffffffffffffffff19166020820180517bffffffffffffffffffffffffffffffffffffffffffffffffffffffff838183161783525050505061090d565b50565b61086d82826040516024016107eb929190610ed0565b6040516020818303038152906040527fb60e72cc000000000000000000000000000000000000000000000000000000007bffffffffffffffffffffffffffffffffffffffffffffffffffffffff19166020820180517bffffffffffffffffffffffffffffffffffffffffffffffffffffffff838183161783525050505061090d565b5050565b6109098282604051602401610887929190610ea0565b6040516020818303038152906040527f319af333000000000000000000000000000000000000000000000000000000007bffffffffffffffffffffffffffffffffffffffffffffffffffffffff19166020820180517bffffffffffffffffffffffffffffffffffffffffffffffffffffffff838183161783525050505061090d565b5050565b60008151905060006a636f6e736f6c652e6c6f679050602083016000808483855afa5050505050565b82805461094290611214565b90600052602060002090601f01602090048101928261096457600085556109ab565b82601f1061097d57805160ff19168380011785556109ab565b828001600101855582156109ab579182015b828111156109aa57825182559160200191906001019061098f565b5b5090506109b891906109bc565b5090565b5b808211156109d55760008160009055506001016109bd565b5090565b60006109ec6109e784610fe1565b610fbc565b905082815260208101848484011115610a0457600080fd5b610a0f8482856111d2565b509392505050565b600081359050610a2681611399565b92915050565b600081519050610a3b81611399565b92915050565b600082601f830112610a5257600080fd5b8135610a628482602086016109d9565b91505092915050565b600081359050610a7a816113b0565b92915050565b600081519050610a8f816113b0565b92915050565b600081519050610aa4816113c7565b92915050565b60008060008060808587031215610ac057600080fd5b600085013567ffffffffffffffff811115610ada57600080fd5b610ae687828801610a41565b945050602085013567ffffffffffffffff811115610b0357600080fd5b610b0f87828801610a41565b9350506040610b2087828801610a6b565b9250506060610b3187828801610a17565b91505092959194509250565b600080600080600060a08688031215610b5557600080fd5b6000610b6388828901610a95565b9550506020610b7488828901610a2c565b9450506040610b8588828901610a80565b9350506060610b9688828901610a80565b9250506080610ba788828901610a95565b9150509295509295909350565b6000610bc08383610d63565b905092915050565b610bd181611176565b82525050565b610be081611164565b82525050565b610bef81611164565b82525050565b6000610c0082611022565b610c0a8185611045565b935083602082028501610c1c85611012565b8060005b85811015610c585784840389528151610c398582610bb4565b9450610c4483611038565b925060208a01995050600181019050610c20565b50829750879550505050505092915050565b610c7381611188565b82525050565b610c8281611188565b82525050565b6000610c938261102d565b610c9d8185611061565b9350610cad8185602086016111e1565b610cb681611333565b840191505092915050565b6000610ccc8261102d565b610cd68185611072565b9350610ce68185602086016111e1565b610cef81611333565b840191505092915050565b6000610d07601b83611072565b9150610d1282611344565b602082019050919050565b6000610d2a601483611072565b9150610d358261136d565b602082019050919050565b6000610d4d600083611056565b9150610d5882611396565b600082019050919050565b600060c083016000830151610d7b6000860182610bd7565b506020830151610d8e6020860182610df3565b5060408301518482036040860152610da68282610c88565b91505060608301518482036060860152610dc08282610c88565b9150506080830151610dd56080860182610df3565b5060a0830151610de860a0860182610c6a565b508091505092915050565b610dfc816111b2565b82525050565b610e0b816111b2565b82525050565b6000610e1c82610d40565b9150819050919050565b6000602082019050610e3b6000830184610bc8565b92915050565b60006020820190508181036000830152610e5b8184610bf5565b905092915050565b6000602082019050610e786000830184610c79565b92915050565b60006020820190508181036000830152610e988184610cc1565b905092915050565b60006040820190508181036000830152610eba8185610cc1565b9050610ec96020830184610be6565b9392505050565b60006040820190508181036000830152610eea8185610cc1565b9050610ef96020830184610e02565b9392505050565b60006020820190508181036000830152610f1981610cfa565b9050919050565b60006020820190508181036000830152610f3981610d1d565b9050919050565b6000602082019050610f556000830184610e02565b92915050565b600060a082019050610f706000830188610e02565b8181036020830152610f828187610cc1565b90508181036040830152610f968186610cc1565b9050610fa56060830185610e02565b610fb26080830184610c79565b9695505050505050565b6000610fc6610fd7565b9050610fd28282611246565b919050565b6000604051905090565b600067ffffffffffffffff821115610ffc57610ffb611304565b5b61100582611333565b9050602081019050919050565b6000819050602082019050919050565b600081519050919050565b600081519050919050565b6000602082019050919050565b600082825260208201905092915050565b600081905092915050565b600082825260208201905092915050565b600082825260208201905092915050565b600061108e826111b2565b9150611099836111b2565b9250827fffffffffffffffffffffffffffffffffffffffffffffffffffffffffffffffff038211156110ce576110cd611277565b5b828201905092915050565b60006110e4826111b2565b91506110ef836111b2565b9250826110ff576110fe6112a6565b5b828204905092915050565b6000611115826111b2565b9150611120836111b2565b9250817fffffffffffffffffffffffffffffffffffffffffffffffffffffffffffffffff048311821515161561115957611158611277565b5b828202905092915050565b600061116f82611192565b9050919050565b600061118182611192565b9050919050565b6000819050919050565b600073ffffffffffffffffffffffffffffffffffffffff82169050919050565b6000819050919050565b600069ffffffffffffffffffff82169050919050565b82818337600083830152505050565b60005b838110156111ff5780820151818401526020810190506111e4565b8381111561120e576000848401525b50505050565b6000600282049050600182168061122c57607f821691505b602082108114156112405761123f6112d5565b5b50919050565b61124f82611333565b810181811067ffffffffffffffff8211171561126e5761126d611304565b5b80604052505050565b7f4e487b7100000000000000000000000000000000000000000000000000000000600052601160045260246000fd5b7f4e487b7100000000000000000000000000000000000000000000000000000000600052601260045260246000fd5b7f4e487b7100000000000000000000000000000000000000000000000000000000600052602260045260246000fd5b7f4e487b7100000000000000000000000000000000000000000000000000000000600052604160045260246000fd5b6000601f19601f8301169050919050565b7f496e73756666696369656e742045746865722070726f76696465640000000000600082015250565b7f4661696c656420746f2073656e64206d6f6e6579000000000000000000000000600082015250565b50565b6113a281611188565b81146113ad57600080fd5b50565b6113b9816111b2565b81146113c457600080fd5b50565b6113d0816111bc565b81146113db57600080fd5b5056fea26469706673582212200d101367ea07dc0e348c849c9475b404cbddc238a839fd4aabc31b60fa50beba64736f6c63430008040033",
  "linkReferences": {},
  "deployedLinkReferences": {}
}